:020000040000FA
:0600000056EF1CF0120097
:0600080084EF08F0120075
:060018008CEF08F012005D
:0611000056EF1CF0120086
:02110600FFFFE9
:06110800D1EF0CF0120013
:021116000201D4
:061118001CEF0DF01200B7
:02111E000100CE
:0C11200024390000EA0200000800000072
:04112C00C580C5B005
:10113000FED7460EFCEC12F0010EFCEC12F0C5845A
:10114000C5B4FED71200ADEC12F0800EE66E080EAC
:10115000E66EFAEC1BF0E552E5521D0EC86EC58036
:10116000C5B0FED78AEC1CF0460EE9EC11F0010E7A
:10117000E9EC11F0C584C5B4FED7C580C5B0FED773
:101180008AEC1CF0460EE9EC11F0200EE9EC11F0AF
:10119000C584C5B4FED7D80E5CEC12F0C580C5B0CE
:1011A000FED7470EFCEC12F072EC1CF0E76E010E5D
:1011B000E7CFDBFFC59AC588C5B8FED772EC1CF037
:1011C000DF6EC58AC588C5B8FED7C584C5B4FED74D
:1011D000C8EC11F002E2E16AE5524AEF11F0ADEC21
:1011E00012F08B9094903B0EE66E64EC1CF0E5528E
:1011F0009480480E2EEC12F08250010B010ADE6E34
:10120000DD6A330EE66E64EC1CF0E552C8EC11F0BA
:1012100002E2E16AE5524AEF11F054EC11F0E150BC
:10122000FD0F33EC12F0EE50ED1008E08B9094902F
:10123000010E2EEC12F094804D0E07D08B909490FE
:10124000480E2EEC12F09480060E2EEC12F0B1EF48
:1012500012F0D9CFE6FFE1CFD9FF020EE1268B9045
:10126000949000000000000000000000000000005A
:10127000000000000000000000009480090EE66EEF
:101280007FEC1CF0E5528250010BDE6EDD6A480EE9
:10129000E66E7FEC1CF0E552DECF0BF0DDCF0CF0FC
:1012A0000BC0F3FF0CC0F4FF00D0020EE15C02E2C1
:1012B000E16AE552E16EE552E7CFD9FF120001EC99
:1012C00013F050EC11F002E66CEC11F018E2010E94
:1012D000E76E93EC12F0E7500B160C6A0BC0E6FFBA
:1012E0000CC0E6FF8EEC12F011EC13F003E024ECDE
:1012F00012F0FDE1DF2A010EE4E3DB2AE2D7020E61
:10130000E15C02E2E16AE5524AEF11F0D7EC12F03B
:1013100050EC11F002E66CEC11F015E2F3EC11F078
:10132000010E0F0B03E024EC12F0FDE192DFF3500D
:10133000F41004E0F3EC11F0EE8EED52DF2A010E12
:10134000E7E3DB2AE5D7DEEC12F002E2E16AE552E0
:101350004AEF11F0D7EC12F050EC11F002E66CEC11
:1013600011F024E2F3EC11F0010E0F0B03E024EC7A
:1013700012F0FDE1FD0EDB50010B08E06ADFF350D7
:10138000F41009E0F3EC11F0EE8E05D0000EE66EDD
:10139000E66A8EEC12F011EC13F003E024EC12F08C
:1013A000FDE1DF2A010ED8E3DB2AD6D7DEEC12F00E
:1013B00002E2E16AE5524AEF11F001EC13F0A8EC09
:1013C00012F0FB0EDBCF0DF0FC0EDBCF0EF00C505D
:1013D0000E18E8AE02D00E3404D00D500B5C0E5047
:1013E0000C5813E2FD0EDBCF0DF0FE0EDBCF0EF03E
:1013F00041EC12F0E66AAEDFE552E552F350E66EDC
:1014000017EC13F0DCE3DB2ADAD7020EE15C02E230
:10141000E16AE5524AEF11F042EC13F00001D319F2
:10142000F76ACE0FF66E330EF7220800F5CFD3F031
:10143000D351B1EF12F054EC11F00E0EE12698ECFE
:1014400011F07BEC11F02CE01CEC13F05FDF020ECE
:10145000F3CFDBFF030EF4CFDBFFF3EC11F0EE5024
:10146000ED10F4E0BCDECC0E5EEC11F0BE0E46ECEE
:1014700013F050EC11F002E638EC12F00DE246DF0A
:10148000F350E66ED950040F0B6EDACF0CF0A9ECD6
:1014900011F0EFE3DB2AEDD70B0EDB50100802E072
:1014A000F36A37D0D950FB0F33EC12F0EE50ED1049
:1014B00011E175EC12F0040EDBCFEFFF010EE76EC9
:1014C00075EC12F0E750E926000EEA22050EDBCF9C
:1014D000EFFF1DD0D950FB0F33EC12F0010EEE18C8
:1014E00016E1ED5014E1DE6ADD6A50EC11F002E61F
:1014F00038EC12F00CE2D950040F0D6EDACF0EF07A
:1015000041EC12F017EC13F0F0E3DB2AEED7010EFA
:10151000F36EF46A0E0EE15C02E2E16AE5524AEF14
:1015200011F0ADEC12F07BEC11F002E1F36A33D074
:10153000550E46EC13F050EC11F002E66CEC11F095
:1015400011E2FE0E2AEC12F0600E0B26000E0C22A9
:1015500021EC13F0EF505EEC11F0DF2A010EEBE30B
:10156000DB2AE9D7BE0E46EC13F050EC11F002E690
:1015700038EC12F00EE2CADEF350E66E66EC12F0C2
:10158000BA0EE926000E58EC12F0010EEEE3DB2A4B
:10159000ECD7010EF36EF46A020EE15C02E2E16A3E
:1015A000E5524AEF11F0ADEC12F07BEC11F002E1E4
:1015B000F36A17D01CEC13F00CEC12F0A7DED0ECA1
:1015C00011F00DE170EC12F0D8900D50000A06E613
:1015D000B00E0B5CB30E0C58000E0D58EFE3010E6D
:1015E000F36EF46A020EE15C02E2E16AE5524AEF50
:1015F00011F014EC12F0FFEF0AF0FFEF0AF054ECD8
:1016000011F00E0EE126010EDE6EDD6A98EC11F08F
:10161000040EDB6A050EDB6A010EF36E0C0EF3CFCF
:10162000DBFF4AEC13F00001D36BD151D21101E082
:10163000DED07BEC11F005E114EC12F0F36AF46AF1
:10164000EBD0F00E5EEC11F004DE080EF3CFDBFF02
:10165000090EF4CFDBFFFDDD0A0EF3CFDBFF0B0E2F
:10166000F4CFDBFFD950080FE96EDACFEAFF010EA5
:10167000EE180DE1ED500BE1D9500A0FE96EDACF0B
:10168000EAFF010EEE1803E1ED5001E192D0080EE1
:10169000DBCF0BF0090EDBCF0CF00A0EDB500B1882
:1016A00003E10B0EDB500C1807E0080EDB50E76E71
:1016B0000D0EE7CFDBFF41D0A8EC12F000010C507B
:1016C000CE19E8AE02D0CE3504D0CD510B5CCE5150
:1016D0000C580CE20C0EDBCFE6FFA2EC12F0EF5040
:1016E000E552E71400080AE2010E0BD0A8EC12F054
:1016F000CD510B1802E1CE510C1802E0000E01D0C2
:10170000010EE76E0D0EE7CFDBFFDB5016E1D9CF00
:10171000E9FFDACFEAFF020EEECFDBFF030EEDCFDB
:10172000DBFF59EC11F002E638EC12F006E2020E93
:10173000DBCFCFF0030EDBCFD0F00D0EDB0406E1E4
:10174000A2EC12F00C0EDB50EF1207D00C0EDB1CDB
:101750000B6EA2EC12F00B50EF160D0EDBCFE6FF76
:10176000E66A8EEC12F0DF2A010E01E3DB2A0C0E92
:10177000DBCFF3FFF39EF346F3CFDBFFDB5010E14B
:10178000A2EC12F0EF50E66E47DEE552040EDB2AC3
:10179000050E01E3DB2A010EF36E0C0EF3CFDBFF27
:1017A000B5EC12F0D8900C5002E66CEC11F001E2AE
:1017B0004BD750EC11F004E6410E0B5C000E0C58B8
:1017C00016E30001D35113E1020EDBCFCDF0030E7F
:1017D000DBCFCEF0CD51CE1103E1010ED16FD26B34
:1017E000010EF36E060EF3CFDBFF070EDB6AD95056
:1017F000060FE96EDACFEAFFEE50ED1003E00001CC
:10180000C55104E114EC12F04AEC13F0060EDBCFE4
:101810000BF0070EECEC11F00E0EE15C02E2E16A57
:10182000E5524AEF11F054EC11F0120EE12698EC5B
:1018300012F0DBEC11F002E66CEC11F00BE2BCEC08
:1018400012F0EF50E66EE0EC11F07CEC12F0F1E3F8
:10185000DB2AEFD70C0ECDC0DBFF0D0ECEC0DBFFB9
:101860000E0ED1C0DBFF0F0ED2C0DBFF100ECFC0BB
:10187000DBFF110ED0C0DBFF400E0001CD6FCE6B41
:10188000D16BD26BBCDEF350F4101EE0010EF36E90
:101890000A0EF3CFDBFF0B0EDB6A98EC12F0DBECE9
:1018A00011F002E66CEC11F013E2E0EC11F0EFCF76
:1018B0000BF0BCEC12F0EF500B5C06E1080EDB2ADB
:1018C000090EEDE3DB2AEBD70A0EDB6A0B0EDB6AAF
:1018D00098EC12F0DBEC11F002E66CEC11F00BE28C
:1018E000E0EC11F0EF50E66EBCEC12F07CEC12F084
:1018F000F1E3DB2AEFD70C0EDBCFCDF00D0EDBCF03
:10190000CEF00E0EDBCFD1F00F0EDBCFD2F0100EEB
:10191000DBCFCFF0110EDBCFD0F00A0EDBCF0BF018
:101920000B0EECEC11F0120EE15C02E2E16AE55202
:101930004AEF11F0ADEC12F0FE0EDBCFC5F0010E58
:10194000DE6EDD6A50EC11F002E66CEC11F00CE298
:1019500066EC12F0C50EE926000EEA22EF6ADF2AD5
:10196000010EF0E3DB2AEED7400E0001CD6FCE6B07
:10197000CF6BD06BD16BD26B020EE15C02E2E16AFD
:10198000E5524AEF11F0CFC0CDF0D0C0CEF000014B
:10199000CF6BD06BCD51CE1103E1010ED16FD26B65
:1019A0001200DACFE4FFE2CFDAFFE9CFE4FFEACFBB
:1019B000E4FFF6CFE4FFF7CFE4FFF5CFE4FFF3CF8A
:1019C000E4FFF4CFE4FFFACFE4FF00EE00F00B0EEB
:1019D000E80403E3EECFE4FFFBD700EE0BF0040EC8
:1019E000E80403E3EECFE4FFFBD7E652BDEC13F0CF
:1019F000E55200EE0EF0040EE80403E3E5CFEDFF40
:101A0000FBD700EE0AF00B0EE80403E3E5CFEDFF91
:101A1000FBD7E5CFFAFFE5CFF4FFE5CFF3FFE5CF46
:101A2000F5FFE5CFF7FFE5CFF6FFE5CFEAFFE5CF1E
:101A3000E9FFE5CFDAFF1100D8CFE4FFE0CFE4FF04
:101A4000E46EDACFE4FFE652E552E5CFDAFFE55087
:101A5000E5CFE0FFE5CFD8FF100004D8EFEC14F09D
:101A600038D8FED70F0EC11202D858EF13F0ADECE4
:101A700012F08B6A946A7E6A0201EA6BEB6BEC6B84
:101A8000ED6BDE6ADD6A50EC11F004E60A0E0B5CC9
:101A9000000E0C580DE281EC12F066EC12F0B00E64
:101AA000E926000E58EC12F0010EEDE3DB2AEBD72D
:101AB000970EE66EDEEC1BF0E5520CEC12F0020124
:101AC000010EEE6F020EE15C02E2E16AE5524AEFBE
:101AD00011F054EC11F0090EE1260201EE5101E083
:101AE000EDD9200E0201E76E3019E8AE02D0E734DE
:101AF00002D0E750305D01E2CDD16450020B01E02D
:101B0000C9D170EC12F00D34000E0D1807E6D88024
:101B1000B00E0B54B30E0C54000E0D5403E2F9DA60
:101B20000CEC12F00201EA51EB1102E1000E08D0B8
:101B3000EAC2E9FFEBC2EAFFEF50800B01E0010EC1
:101B4000000901E0A7D1EE6B020160518C0A01E1AE
:101B50006AD1070A01E19DD1010A01E19AD1030A84
:101B600001E197D1010A01E194D10F0A01E191D17C
:101B7000010A01E18ED1030A01E18BD1010A01E1E1
:101B800031D1070A01E19AD0010A3AE0030A05E0DF
:101B9000010A01E078D16DDB7CD18B888B8A3DEC2A
:101BA00012F002E1000E03D09FDB01E0010E0009FC
:101BB00001E06BD10201810EA06F170EF66E110EBF
:101BC000F76E0800F5CFA1F2160EF66E110EF76E45
:101BD0000800F5CFA2F2B0C0A3F2B1C0A4F2B2C027
:101BE000A5F2B3C0A6F2B4C0A7F2B5C0A8F2B6C0C1
:101BF000A9F2B7C0AAF2B8C0ABF2B9C0ACF25CD0DF
:101C00008B888B8A3DEC12F002E1000E03D06CDB76
:101C100001E0010E000901E038D10201820EA06F3F
:101C200061C2E6FFE66A06DAE552E55262C2E6FF05
:101C3000010E67DB63C2E6FF020E63DB64C2E6FFF0
:101C4000030E5FDB65C2E6FF040E5BDB66C2E6FFE8
:101C5000050E57DB67C2E6FF060E53DB68C2E6FFE0
:101C6000070E4FDB69C2E6FF080E4BDB6AC2E6FFD8
:101C7000090E47DB61C2A1F262C2A2F263C2A3F203
:101C800064C2A4F265C2A5F266C2A6F267C2A7F258
:101C900068C2A8F269C2A9F26AC2AAF2DF6A0A0E91
:101CA000DF5C0AE281EC12F0DF50EA6AB00FE96E05
:101CB000000E58EC12F0F3D7DFDAE7D08B888B8A6E
:101CC000CCD9DBDB02E1000E03D00EDB01E0010E1C
:101CD000000901E0DED0F29E0201830EA06F010E2A
:101CE000F36E030EF3CFDBFF040EDB6A5CDC04EC67
:101CF00013F0F350F4106FE0010EDB6A020EDB6AA2
:101D000087EC12F00001C45100010CAE02D0D89053
:101D100003D00B5C000E0C585CE2010EDBCFE6FF3B
:101D200091EC0AF0E55299D90201830EA06F030EDF
:101D3000DB6A040EDB6AAEDB01E6CEDA17E2E7DB34
:101D4000030EC9DBFEE1600E0B26000E0C22030E13
:101D5000DB500B24E96E040EDB500C20EA6EEF50D2
:101D6000E66E010EEADAE7E3DB2AE5D7030EDB6A6B
:101D7000040EDB6A8FDB04E60A0E0B5C000E0C58C7
:101D80000DE228EC13F0BA0EE926000EEA22EF501D
:101D9000E66E090ED2DAEEE3DB2AECD7F28E6DDBCB
:101DA00002E1000E03D0A0DA01E0010E0009F7E124
:101DB00063DA63DB02E1000E03D096DA01E0010E84
:101DC0000009F7E1F29E010EDB2A020E99E3DB2AFD
:101DD00097D7F28E5ED0F28E0201830EA06FA169BA
:101DE0004BDA57D04ADB02E1000E03D07DDA01E086
:101DF000010E00094CE1A3EC08F0050EF3CFDBFF68
:101E0000060EF4CFDBFF8B888B9A27D90201840E54
:101E1000A06F010EA16F050EDBCFA2F2060EDBCF85
:101E2000A3F22ADA34D029DB02E1000E03D05CDA17
:101E300001E0010E00092DE1070EDB6A080EDB6AE6
:101E4000070EDBCF0BF0080EDBCF0CF0D8900C5058
:101E500001E60EDB1EE20201A06B010EA16F020E75
:101E6000A26F030EA36F040EA46F050EA56F070EDD
:101E7000DBCFA6F201DA2C0E1FDB070EDB2A080EE1
:101E8000DFE3DB2ADDD78B888B8A180E15DB8B9876
:101E90008B9A70DA090EE15C02E2E16AE552FAD14E
:101EA000B0DBC282C2B2FED7C350DF6E010EC4CF18
:101EB000DBFF6EDA02E2E16AE552ECD10201F05199
:101EC000F11104E1100EF06F270EF16FF007000E14
:101ED000F15B64A204D0F051F1112BE107D00201B3
:101EE000305102E18B9822D0300502E18B8809D075
:101EF000020E305D02E18B8819D0040E305D03E1E3
:101F00008B988B8A1200100E305D06E10201F051B1
:101F1000F1110FE18B780AD0200E305D0AE1020149
:101F2000F051F11106E18B788BA802D08B9A120048
:101F30008B8A1200120012001200120067EF1AF0D2
:101F400012001E0EE66E010EE66E4CEC14F0E55229
:101F5000E552BAEF11F002014F0520E102015005F0
:101F60001DE1A094E8DF64920201506B0001100EA5
:101F7000DD6F0E0EDE6FDD07000EDE5BDD51DE1164
:101F8000FAE16484080EDD6F070EDE6FDD07000ED8
:101F9000DE5BDD51DE11FAE16494A084120084D985
:101FA000FD0EDBCF06F0FE0EDBCF07F0050E0618A8
:101FB00001E1075036E0E868061802E17F0E0718D5
:101FC0002FE0030E061801E1075028E0020E061864
:101FD00001E1075021E0010E061801E107501AE067
:101FE000740E061801E1075013E0750E061801E1A2
:101FF00007500CE0730E061801E1075005E0720E61
:1020000006180FE107500DD097DF0BD093DF09D0F2
:1020100092DF07D096DF05D093DF03D08FDF01D0AA
:102020008CDF010E9ED22EDBA96EA69EA69CA680FA
:10203000A85097D227DBA96EFD0EDB50A86EA69E96
:10204000A69CA684F29E550EA76EAA0EA76EA68227
:10205000A6B2FED7A694F28E84D2D3DA21D904E6B2
:10206000400E0B5C000E0C5808E230DA18DBEF6A09
:10207000DF2A010EF3E3DB2AF1D7020EE15C02E274
:10208000E16AE55207D1EBDA0BD904E6050E0B5CE9
:10209000000E0C5815E24CD90CD901E61DD90BE203
:1020A00057DA030E18DAFEE1600E0B26000EDDDAB9
:1020B000F3E3DB2AF1D7DF2A010EE6E3DB2AE4D7DC
:1020C000040EE15C02E2E16AE552E4D0C8DAE8D845
:1020D00004E6050E0B5C000E0C5815E229D9E9D870
:1020E00001E6FAD80BE234DA030EF5D9FEE1880EE8
:1020F0000B26000EBADAF3E3DB2AF1D7DF2A010E52
:10210000E6E3DB2AE4D7040EE15C02E2E16AE55291
:10211000C1D0CAD80A0EE1268B888B9AAED902E1CB
:10212000000E03D0E1D801E0010E000901E09AD0D1
:10213000F29E94928B82640E91D9DDD801E18ED00B
:10214000F9EC0AF02DD901E189D0080EDB6ABEDF77
:1021500019DA11E0EDD8ADD801E6BED806E236DADC
:10216000080E17DAF8E3DB2AF6D7080EDB28E76E4D
:10217000080E95D9EDD7010E9FD9EFEC08F0F9ECD8
:102180000AF00ED916E0090EDB6AA0DFFBD911E0D8
:10219000CFD88FD801E6A0D806E218DA090EF9D90F
:1021A000F8E3DB2AF6D7090EDB28E76E090E77D9AC
:1021B000EDD7090EDB50F36E080EDB50F35C35E112
:1021C000F28E4BDF60DF080EDBCFC4F012D91CD9D2
:1021D00002E10E500C1844E0ABD86BD801E67CD875
:1021E00013E22AD9AAD9FEE1880E0D26000EB6D830
:1021F00042DA030E70D9FEE1600E0B26000E71D894
:10220000D5D8EBE3DB2AE9D793D853D801E664D8D5
:1022100007E212D992D9FEE1C3D9F7E3DB2AF5D759
:102220003BD874D8D4E3DB2AD2D7F28E16DFE1D8BC
:10223000EBD802E10E500C1813E07AD83AD801E638
:102240004BD807E2F9D879D9FEE1AAD9F7E3DB2A1E
:10225000F5D722D85BD8ECE3DB2AEAD7F28EFDDE95
:10226000F28E0AD88B980A0EE15C02E2E16AE5522E
:1022700011D00EEF00F01200400EE66EA00EE66EDA
:10228000020EE66E010EE66EC4D9F3CFECF2F4CF87
:10229000EDF21200E16E65D168D9A0D94FEF13F0CD
:1022A00057D9D8900C501200D9CFE6FFE1CFD9FF13
:1022B0001200020EDBCF0BF0030E99D1E66EE66A38
:1022C0005FEC09F0E552E5521200DBCFEAFFC50EE4
:1022D000E926000EEA221200080E0B5C000E0C58D4
:1022E00012000C22EEEF12F0ECC2E9FFEDC2EAFFA1
:1022F000EF50800B1200EFEC08F086D9F350F41089
:102300001200E66E97DEE552E5521200EF68090E04
:10231000E76E2BD9E7500B26000E0C22040E0BC0E3
:10232000DBFF050E0CC0DBFF060EDB2A070E1200DA
:10233000020EDB6A030EDB6A1200E76E89D9E750F2
:10234000E926000EEA22ABD9AFD9030EDB2A040E30
:10235000120077D9A9D9DF2A010E12000E22020E2F
:10236000DB500D24E96E030EDB500E20EA6EEF50B9
:10237000E66E1200400EE66E600EE66E020EE66E2F
:10238000E66A010E46D9F3CFEAF2F4CFEBF212007F
:10239000DFD80BC0F3FF0CC0F4FF020EE15C1200AB
:1023A000F3CFDEFFF4CFDDFFC2EF12F07DD9020ED6
:1023B000DB2A030E1200080EDBCF0BF0090E17D13B
:1023C000080EDB50D924E96E090EDB50DA20EA6EE4
:1023D000120012D98AEF1CF0DBCF0CF00BC0F3FF18
:1023E0000CC0F4FF1200D950020FE96EDACFEAFFF9
:1023F0001200C4C0A0F2010EF36E040EF3CFDBFF97
:10240000050EDB6A4AEF13F036D90001C4510D6E98
:102410000E6A0D500B181200000EE66EE66AC2EC52
:102420001BF0E552E55212000001CD6BCE6BD16B73
:10243000D26BCF6BD06B1200060EDBCF0DF0070E08
:10244000DBCF0EF0030E1200EC52D890ED32EF32DB
:10245000E8061200DB50080D04EF13F0E66E7FEC87
:102460001CF0E5521200E96EFF0EDA20EA6E12004F
:10247000090E0B5C000E0C5812000201EC51ED111C
:102480001200DE500D24E96EDD500E20EA6EEF5092
:10249000E66E1200030EDBCF0BF0040EA8D0E7CFE0
:1024A000DBFFFDEC0AF0F3CFDEFFF4CFDDFF12001F
:1024B000EA22FAD8DF2A1200E66E2FEC1CF0E55271
:1024C0001200020EE126DE6ADD6A1200DECFE9FFAD
:1024D000DDCFEAFF1200D8900B360C36E80612006A
:1024E000A3EC1BF091D80D6A1200FD0EDBCFE9FFC3
:1024F000FE0EDBCFEAFF1200D7D8080EDB2A090E4A
:102500001200DFCFE6FF8FDDE552E66E1200010E0E
:10251000DBCF0BF0020EDBCF0CF012000DEC09F05C
:10252000E552E5521200FD0EDBCF0BF0FE0E12005D
:10253000080EDB6A090EDB6A1200D8900D360E36E3
:10254000E8061200040EDBCFE9FF050E65EF11F07F
:10255000DECF0BF0DDCF0CF01200A6DE020EE1267E
:102560001200E552E7CFD9FF1200040EDBCF0BF0CB
:10257000050EDBCF0CF01200080EDBCFE9FF090ED1
:1025800065EF11F0D9CFE9FFDACFEAFFEE50ED1099
:10259000120060DF880E0B26000EA3DED6EF11F0CE
:1025A000600E0D26000EDADE77DED6EF11F07CDE4F
:1025B000040EE126BDDEDE6ADD6A1200020EDBCF0C
:1025C0000BF0030E09DF040EE15C1200020EDBCFFC
:1025D000E9FF030E7ADEEF50E66E1200020EDB50CA
:1025E0000B24E96E030EDB500C20EA6E1200DBCFE9
:1025F0000CF0D8900C501200E66E6AEC1BF0E5521D
:10260000120052DE61EF12F0F3CF0BF0F4CF0CF0BA
:102610001200E66E70EC14F00B6E050EE15E0B50CE
:102620001200D950FD0F1FDF010E0F0B12007BDFD0
:10263000DBCF0CF0A9EF11F0CC0E40DE440E5EEFC4
:1026400011F0DE500B24E96EDD500C20EA6E120012
:10265000030EDBCFE9FF040EDBCFEAFF120024DE1E
:10266000040EE126DE6ADD6A12003BDEEF6A020E2E
:10267000DB2A030E1200060EDBCF0BF0070EDBCFBA
:102680000CF0120011DEFE0EDB50120017DEDE6AC7
:10269000DD6A1200060EDB6A070EDB6A1200A00E6E
:1026A000E926020EEA221200E552E750EF6E120010
:1026B000B2EC19F0A0940F015F6B626A536BACEC43
:1026C00019F036EC19F0DF6ADF500B6E0C6A080E59
:1026D0000B5C000E0C5810E2DF50040DF3CFE9FF45
:1026E000F4CFEAFF000EE926020EEA22EE6AEE6A55
:1026F000EE6AEE6ADF2AE8D7648C0F015C6B64989F
:10270000649C62A607D062960201436B486B496BDA
:102710004A6BF7D70201010E5A6F5B6F5C6B5D6B02
:10272000506BDF6A020EDF5C11E2EA6ADF34B5EC5F
:1027300019F0EA22EE6AED6AEA6ADF34BCEC19F0BD
:10274000EA22EE6AED6AFFEC18F0ECD70201080EFF
:102750003B6F020E3C6F0F01160E536F0201200EED
:10276000026F020E036F080E016F840E006F0201EC
:10277000316B306BE552D1EF18F0B2EC19F0020179
:10278000300507E164BA05D0626A60806088020E95
:10279000306F6250040B05E06050040B02E062945D
:1027A00041DB64B246D06250010B09E06050010B7E
:1027B00006E07EDFA0840201040E306F629062505A
:1027C000100B05E06050100B02E022DB629862AC57
:1027D0000FD060AC05D04EEC19F0730EBEEC18F0C3
:1027E000629C0201585101E05807585101E10AD991
:1027F0006250200B04E06050200B01E0F8DA6250D8
:10280000020B0CE06050020B09E04EEC19F0E66898
:102810007F0EE66EC3EC19F00F015F6B040E020130
:10282000E76E3019E8AE02D0E73402D0E750305DF1
:1028300002E2A1942ED060A62BD0DF6A040EDF5CEA
:1028400027E262A625D063CF51F202015151780BE5
:10285000E842E842E842526F629651B504D05251C4
:10286000CAEC19F003D05251CFEC19F0EA22EF7004
:10287000525102E1E3DA0AD0000EE66EE66A510E2A
:10288000E66E020EE66E720EBEEC18F0DF2AD6D7A8
:10289000A194E552D1EF18F086EC19F0FD0EDBA4FF
:1028A00003D0E66A3EEC19F0FD0EDBA204D0010E67
:1028B000E66E3EEC19F0FE0EDB500C6A530F0B6E09
:1028C0000F0E30EC19F0C2EC18F0FD0EDBCFEFFF6D
:1028D000020EE15C02E2E16AE552E16ED1EF18F02E
:1028E00086EC19F0FD0EDB5003E0B9EC18F002D0D5
:1028F000F0EC18F01CEC19F0D9CFE9FFDACFEAFFC1
:10290000EE50ED1003E1F36AF46A28D0C2EC18F03F
:10291000DEEC19F0FB0EDBCFEEFFFC0EDBCFEDFFA4
:10292000C2EC18F0EE52FA0EDBCFEFFF400ED4EC03
:1029300019F0880EE3EC19F0FD0EDB5003E0B9EC62
:1029400018F002D0F0EC18F0EA22EF74DECF0BF0B2
:10295000DDCF0CF00BC0F3FF0CC0F4FF020EE15C06
:1029600002E2E16AE552E16ED1EF18F086EC19F06F
:10297000FE0EDB5003E194EC19F009D0F5EC18F0F1
:1029800074EC19F0F5EC18F0010F74EC19F0020E6C
:10299000E15C02E2E16AE552E16ED1EF18F0CCECC5
:1029A00018F064A816D0A5EC19F0400EEE16EE6AE9
:1029B000EE6AEE6AA5EC19F0EE7CDBDBEA22EF743E
:1029C000400E0B6EA5EC19F00B50EF16A5EC19F0AC
:1029D000EF7CE7D3646A606A0201306B1200020187
:1029E00030510FE1646A606A36EC19F0D08EA2842F
:1029F000A084F28E64B602D06486FCD70201010E78
:102A0000306F120002015A5122E1010E5A6F5B51E0
:102A10001EE1010E5B6F020E405D07E1B8DBEE5276
:102A2000EF6AB5DBC80EEF6E1200400510E1536B84
:102A3000C4DBEE52080EEF6EC0DB80EC19F0BDDB9C
:102A4000840EEF6E010E536F90DB800EEF6E12005E
:102A500002015C6B5D6B020E405D06E1D8EC19F083
:102A6000B1DB6FEC19F010D044510201265D020178
:102A700045510201275904E226C244F227C245F219
:102A800061D885DB9FDB83DBC80EEF6E120086EC1E
:102A900019F0000EDE6E020EDD6EA7DB040DF4CF22
:102AA0000CF0D9CFE9FFDACFEAFFF350EE260C5055
:102AB000ED2268DBEF9EFD0EDB5002E191DB01D0E1
:102AC00058DBEA22DECFEEFFDDCFEDFF5BDBEF9CD4
:102AD00059DB040EE926000EEA22EF8C020EE15CBF
:102AE00002E2E16AE552E16E5CD36498020143BF01
:102AF0000DD048AF09D0020E406F5D5101E1A8DF53
:102B000002015B6B5A6B120094EF19F0020120AFC7
:102B10000DD00201010E406F5C5101E199DF02010D
:102B20005B6B5A6B59510DE102EF15F00201020E79
:102B3000406F1BDB840EEF6E5B6B5A6B595101E1EA
:102B400061DF1200B2EC19F0080EDF6E0201445D85
:102B5000000E45590AE244C2DFFF3F5102E1010E77
:102B600003D03F0502E1020E3F6FDF500C6AE850D0
:102B7000445D446F0C504559456F09DBEE52DFCF81
:102B8000EFFF280E4D6F020E4E6F43B10DD0DF5098
:102B900017E041C2F6FF42C2F7FF412B000E42236D
:102BA0000800F5503CDBF3D7DF500AE041C2E9FFF3
:102BB00042C2EAFF412B000E4223EF5030DBF4D734
:102BC000E552EFD2A3DBF9DAEE52EFCFDFFFDFCF32
:102BD0000BF00B500201495D000E4A5902E249C256
:102BE000DFFFDF500B6E0C6AE850495D496F0C50F7
:102BF0004A594A6F010EDB6ADF50F36E010EDBCFDC
:102C0000F4FFF350F45C16E2010EDB50EA6A280F81
:102C1000E96E020EEA22EF50E66E46C2E9FF47C2B5
:102C2000EAFF462B000E4723E552E750EF6E010EF8
:102C3000DB2AE2D7000ED8804955000E4A550DE236
:102C4000B7DBC0DABADAEF50400B03E148DBC80E5D
:102C500002D045DB880EEF6E12D087DA840EEF6E5D
:102C60004B514C1107E005D04CC2FAFF02014B5109
:102C7000F96EFADF0201489F595101E1C3DE020EED
:102C8000E15C02E2E16AE552E16E8BD26BDB0201AC
:102C9000438F62DB200EE66EE66AE66A000EE66EA1
:102CA000020E96DA648CDF6A020EDF5C02E2A7DABB
:102CB000FBD710DB320EE66E020E8ADA649C02014C
:102CC000080E3B6F020E3C6F000E336F020E346F26
:102CD00033C235F2366F22C231F2315102E1100EA9
:102CE0000BD0010EE66EE66A310EE66E020EE66E5F
:102CF000010E44DA0201200E306FE55252D2800EEE
:102D00000201205D38E10201C00E436F0201235130
:102D1000030A1AE0010A09E0030A2BE10201900EFE
:102D2000416F350E426F120E1ED0C6DA2D0EF626FA
:102D3000360EACDA020E0201B8DAF5CF44F2030E19
:102D4000B4DAF5CF45F21200030E225D0FE2B4DAD9
:102D50002F0EF626360E9ADA41C2F6FF42C2F7FF70
:102D60000800F5500201446F456B12000201436BED
:102D700012000201436B1200C9DA0201286B296BB1
:102D800020511F0B020A11E0030A0CE0010A1EE1A8
:102D90000201438F0201288102014F0517E1020160
:102DA000288314D00201438F11D00201438F020106
:102DB00024BF02D0C0DA01D0C3DA3EDAC9DA06E0B5
:102DC000E1D9EF50040B02E0010E286F020143AF7E
:102DD00007D0280E416F020E426F4381020E446FEE
:102DE000020EE15C02E2E16AE552E16EDAD10F0126
:102DF00053A10CD0E2D9EF50800807E1C8D9EF50B9
:102E0000840803E1DAD98C0EEF6E5391629A1200B6
:102E10006084629864820201010E506F13DA750EAD
:102E2000BEEF18F00201506B0DDA740EA7D9649250
:102E3000609462A402D06294FCD7120093DA02017B
:102E40002D0E586FFD0E511539E17E0E5115E840DB
:102E50007F0B040DF3CF33F2F4CF34F2000E33279F
:102E6000020E342333C235F234C236F23575A5D999
:102E7000EF503C0BE842E8420D081EE1DF6A080E05
:102E8000DF5C16E29AD9020EE926000EC2D9EF5095
:102E9000E66EDF50EA6A200FE96E020EEA22E55282
:102EA000E750EF6E8AD98ADAEE2AEF22DF2AE7D7D7
:102EB00084D926DA0AD807D023D805D0FD0E5115BB
:102EC000040801E12CD8E5526CD102013F6B596B2B
:102ED0005C6B5D6B536B406B5AD9EF9E3B7557D95A
:102EE000EF9E3B75FCD9EF9E436B446B456B486B83
:102EF000496B4A6B51D8A6D9030E40D975EF15F02E
:102F0000020E0201405D02E1E2EF15F0406B535109
:102F100004E12BD98C0EEF6E1200536B120022DAF3
:102F200036D9EF50400B01E0010EDF6E02013B7518
:102F3000080E305D0BE122C25CFF0F015C5103E023
:102F40000201100E02D00201040E306F400513E1A1
:102F50001ED938D9F7DD020E02013F5D03E117D912
:102F6000840E07D0DF5003E112D9C80E02D00FD96A
:102F7000880EEF6E0FD048AF0CD04B514C1107E0CC
:102F800005D04CC2FAFF02014B51F96EFADF020183
:102F9000489F406BE55205D102012051600BE84289
:102FA000E842E842E842E842000901E0120021510B
:102FB0000C0A45E00B0A3FE00C0A31E0010A22E06E
:102FC0000B0A1EE0020A1CE0030A18E0080A10E0DF
:102FD000010A0CE00F0A08E0030A01E012000201F6
:102FE000438F080E306F12007FEF16F046EF16F099
:102FF0000201310E416F020E426F0CD0BCEF16F091
:1030000020EF18F024510201416F426B320E41272C
:10301000020E42234381010E446F438F12000201CE
:10302000438F02012451EA6A320FE96E020EEA224E
:1030300022C2EFFF120006D9020EBEEF18F01200F6
:10304000ABD8050EE1260201220510E120511F0B2D
:1030500000090CE10201438F030E0201215D04E12E
:103060000201010E4F6F02D002014F6B020122518B
:1030700001E074D020511F0B020870E124510F0BA6
:1030800000096CE024510F0B010868E3200E0201D7
:10309000305D64E1438F020124BF04D04CD9CCD809
:1030A000D7D803D04DD9C8D8D7D8EA22020EEFCF4F
:1030B000DBFF09D9010B03E1000EDF9401D0DF84AF
:1030C00024BF02D038D901D03BD9EA22DECFEEFFAF
:1030D000DDCFEDFF030E215D0CE13AD907E024BFFF
:1030E00002D0B6D801D0B8D8EA22EF82840E6BD9CC
:1030F00035D0DF742DD906E045D8EF9E43D8EF8C4C
:1031000009D902D03FD8EF8CDF74DDD8020B02E181
:103110001FD90DE0020124BF02D09AD801D09CD85B
:10312000EA22EF923B0E0B6E3FD9F4D802D03B0E51
:103130003BD9020124510F0B0C6A530F0B6E0F0E7B
:103140000C22030E0BC0DBFF040E0CC0DBFF030ED2
:10315000DBCFE9FF040EDBCFEAFFEF90050EE15C69
:1031600002E2E16AE552E16E1CD022D9C9D86FEFC4
:1031700019F0FE0EEA6ADB34B5EF19F0E66EE66A86
:10318000C3EF19F0DECFE9FFDDCFEAFF12003BC24B
:10319000E9FF3CC2EAFF1200D9CFE6FFE1CFD9FF39
:1031A0001200E552E7CFD9FF120024510F0BE96E50
:1031B000EA6AD890E936EA36120033C2E9FF34C22F
:1031C000EAFF1200FBD8280EEE6E020EED6E120022
:1031D000E66E15EC1CF00B6E050EE15E0B50120056
:1031E000FE0EEA6ADB34BCEF19F0FD0EDB50E8247A
:1031F0000D6EFE0EDB50040DF3500D241200DF5057
:10320000CED8EA22EF6ADF50C5D8EA22EF6ADF2A79
:103210001200EA22EE50EFCFEAFFE96E1200E66EEE
:103220004DC2E9FF4EC2EAFF4D2B000E4E23E55280
:10323000E750EF6EDF061200EA22EECFDEFFEDCFA1
:10324000DDFF1200000EE66EE66AE66EE66A120028
:1032500024510F0BCAEF19F024510F0BCFEF19F0C7
:103260000C220BC0DEFF0CC0DDFF1200160E616EDB
:103270000F019F0E5B6F7B0E606E1200FE0EDBCFA8
:10328000E6FF47EC15F0E552E5521200F72209007F
:10329000F5CF41F20A00F5CF42F21200010EE66EC0
:1032A000E66A000EE66EE66A1200F76A4125F66EDF
:1032B0004251F722080012002251F66EF76AD890A8
:1032C000F636F7361200D950020FE96EDACFEAFF70
:1032D000EF501200010EE66EE66AE66A120035C291
:1032E000E9FF36C2EAFF1200040DF3CF0BF0F4CF72
:1032F0000CF0000E0B26020EB3DF840EE3EF19F084
:103300005DD8200EEE6E020EED6E120045DF020E4D
:10331000E1261200020EE66EE66ADECFE6FFDDCFA2
:10332000E6FF050EBEEF18F020DF8C0EEF6E2FDFEC
:10333000840EEF6E120039DF370EE926020E1200FE
:1033400034DF3B0EE926020E120013DF09EF19F0FD
:1033500019DFEF50800B1200BDDF540EE66E0F0E2A
:10336000E8EF18F019DFE6521200FE0BEA36E96EBC
:103370003B0EE926020E1200FE0BEA36E96E370E0E
:10338000E926020E1200CFEC0FF00B6E060EE15E86
:103390000B501200EA6A560FE96E020E1200EA6A3A
:1033A000540FE96E020E1200EDDEE850EF16120027
:1033B00096DFEE52080EEF6E6FEF19F0020EE9265F
:0E33C000000EEA221200DEDEE850EF121200CC
:0233CE00005E9F
:1033D000BCE2613FDD83C29C7E20A3FD1F419DC3F3
:1033E000217FFCA2401E5F01E3BD3E6082DC237DA5
:1033F0009FC1421CFEA0E1BF5D0380DE3C62BEE0D7
:10340000025CDF81633D7C22C09E1D43A1FF461804
:10341000FAA427799BC584DA3866E5BB5907DB85B2
:103420006739BAE406581947A5FB7826C49A653B64
:10343000D987045AB8E6A7F91B45C6987A24F8A696
:10344000441A99C7257B3A6486D85B05E7B98CD2C4
:10345000306EEDB3510F4E10F2AC2F7193CD114F72
:10346000ADF3702ECC92D38D6F31B2EC0E50AFF124
:10347000134DCE90722C6D33D18F0C52B0EE326C56
:103480008ED0530DEFB1F0AE4C1291CF2D73CA9484
:103490007628ABF517490856B4EA6937D58B570932
:1034A000EBB536688AD495CB2977F4AA4816E9B7E4
:1034B000550B88D6346A2B7597C94A14F6A8742A16
:0E34C000C896154BA9F7B6E80A54D7896B35A4
:0234CE000201F9
:1034D00020511F0B010801E01200245101E01200ED
:1034E000060E215D1BE12351230A18E0010A0CE0BE
:1034F000030A14E10201310511E10201B40E416F2A
:10350000350E426F090E06D00201110E416F360EC4
:10351000426F1C0E446F456BC00E436F0201205179
:10352000600BE842E842E842E842E842010801E074
:10353000120021510B0A26E0080A19E0090A11E0DD
:10354000080A05E00B0A23E0080A21E01200020144
:103550005E0E416F020E426F010E446F456BC10E4D
:103560000FD00201800E436F23C25EF212000201EF
:103570005F0E416F020E426F010E446F456B810E6C
:10358000436F12000201800E436F22C25FF21200ED
:103590001201000200000008D8043F0002000102EE
:1035A000000109022900010100E0320904000002C3
:1035B00003000000092111010001221C0007058100
:1035C000034000010705010340000104030904143E
:1035D000035400490044004500200053002E0041E0
:1035E000002E002E03530065006E0073006F002054
:1035F00000560031002E00300000000000000000E6
:1036000000000000000000000000000000000000BA
:10361000000600FF0901A1011901294015012540FB
:10362000750895408100190129409100C0A235CB51
:0536300035CF35E33544
:0A3636001E0EF66E110EF76E000E68
:10364000F86E02010900F550E56F0900F550E66FCC
:1036500003E1E56701D03DD00900F550E06F0900B6
:10366000F550E16F0900F550E26F09000900F550CF
:10367000E96E0900F550EA6E090009000900F550ED
:10368000E36F0900F550E46F09000900F6CFE7F297
:10369000F7CFE8F2F8CFE9F2E0C2F6FFE1C2F7FFB8
:1036A000E2C2F8FF0201E35302E1E45307E009003C
:1036B000F550EE6EE307F8E2E407F9D7E7C2F6FF4C
:1036C000E8C2F7FFE9C2F8FF0201E507000EE65B7A
:0436D000BFD712004E
:0C36D400D9CFE6FFDACFE6FFE1CFD9FF47
:1036E000E2CFDAFFFD0EDB50C96EC6AE02D0FF0E90
:1036F00024D00F0EC61408080FE00F0EC6140B08D6
:103700000BE0C6889EA6FED7C750040B03E1C75046
:10371000010B10E0000E11D00F0EC614080804E0D3
:103720000F0EC6140B0809E1C7B0FED78AEC1CF0D7
:10373000C5AC02D0FE0E01D0000EE552E5CFDAFF97
:06374000E7CFD9FF1200E3
:0A374600D9CFE6FFDACFE6FFE1CFAE
:10375000D9FFE2CFDAFFE652E652D650DF6E010E15
:10376000D7CFDBFFDECF0BF0DDCF0CF00BC0F3FFCC
:103770000CC0F4FFE552E552E552E5CFDAFFE7CFA2
:04378000D9FF12005B
:0C378400D9CFE6FFDACFE6FFE1CFD9FF96
:10379000E2CFDAFFE652E652FC0EDBCFDEFFDBCFF4
:1037A000DDFF010EDB50D76EDF50D66EE552E552DD
:0C37B000E552E5CFDAFFE7CFD9FF1200A9
:0437BC00D9CFE6FF7C
:1037C000DACFE6FFE1CFD9FFE2CFDAFFFD0EDB5023
:1037D0007F0BD56ED76AD66AF294FD0EDBAE02D0AF
:1037E000F28A01D0F29AD58EE552E5CFDAFFE7CF23
:0437F000D9FF1200EB
:0C37F400D9CFE6FFDACFE6FFE1CFD9FF26
:10380000E2CFDAFF3F0EC716C66AC56AFD0EDB506F
:10381000C612FC0EDB50C712938C9388C68AE55201
:0A382000E5CFDAFFE7CFD9FF120071
:06382A00FE0EE3CFE9FFF2
:10383000FF0EE3CFEAFFE9CFF3FFEACFF4FFFB0E81
:10384000E35003E1FC0EE35009E0FB0EE30602E265
:0E385000FC0EE306FD0EE350EE6EF1D7120003
:02385E00FF0E5B
:10386000E350106EEF0E01D0F30EE76EE72E36EF49
:103870001CF00C0E0F6EE76AE72E3CEF1CF00F2ECB
:0C3880003BEF1CF0102E34EF1CF0120087
:04388C00000EF36EC9
:1038900000EE00F0030E01D81200EA6002D0EE6ADA
:0C38A000FCD7F350E9601200EE6AFCD780
:0438AC0011EE00F029
:1038B00021EE00F0F86A0A9C1BEC1BF091EC1CF066
:0838C0002DEC0DF0FBD7120006
:0838C800FF0EE350106E1B0E11
:1038D00000D001D0200EE76EE72EFED7102EFAD7CB
:0438E00000D0120002
:0C38E4000F0EC614080804E00F0EC614F6
:0E38F0000B0801E1C586C7A0FED7C950120023
:0238FE00FF0EBB
:10390000E350E84E1200000000D000D000D0E82EB6
:04391000FAD71200D0
:0C3914001F0EC514FDE1C750040BFAE1C2
:02392000120093
:02392200120091
:0839240000000000010000009A
:020000040030CA
:0100000000FF
:0100010032CC
:0100020003FA
:010003001EDE
:0100050000FA
:010006008178
:0100080003F4
:01000900C036
:01000A0003F2
:01000B00E014
:01000C0003F0
:01000D0040B2
:00000001FF
